:100000004BC0000064C0000062C0000060C000007F
:100010005EC000005CC000005AC0000058C0000074
:1000200056C0000054C00000BFC0000050C0000017
:100030004EC000004CC000004AC0000048C0000094
:1000400046C0000044C0000042C0000040C00000A4
:100050003EC000003CC000003AC0000038C00000B4
:1000600036C0000034C0000032C0000030C00000C4
:100070002EC000002CC000002AC0000028C00000D4
:1000800026C0000024C0000022C0000020C00000E4
:100090001EC000001CC0000011241FBECFEFD0E125
:1000A000DEBFCDBF11E0A0E0B1E0E6E3F3E002C0C7
:1000B00005900D92A030B107D9F711E0A0E0B1E0B2
:1000C00001C01D92AD30B107E1F71CD032C198CF0D
:1000D00084B7877F84BF88E10FB6F894809360006F
:1000E000109260000FBE90E080E80FB6F894809305
:1000F0006100909361000FBE8FEF84B987B98AB910
:1001000080BB0895E5DF8FEF15B818B81BB811BA9A
:100110002FEF33ED90E3215030409040E1F700C0E5
:10012000000085B988B98BB981BB2FEF33ED90E31F
:10013000215030409040E1F700C00000E5CF982FFB
:10014000973058F59093E900981739F07091EC00CA
:100150002091ED005091F00003C0242F762F50E045
:1001600021FF19C03091EB003E7F3093EB003091BE
:10017000ED003D7F3093ED003091EB003160309326
:10018000EB007093EC002093ED005093F000209171
:10019000EE0027FF07C09F5FD3CF8F708093E900E9
:1001A00081E0089580E008951F920F920FB60F929C
:1001B00011242F933F934F935F936F937F938F936C
:1001C0009F93AF93BF93EF93FF938091E10082FFE2
:1001D0000AC08091E20082FF06C08091E1008B7F1F
:1001E0008093E100A5D08091DA0080FF1DC080914E
:1001F000D80080FF19C08091DA008E7F8093DA00EA
:100200008091D90080FF0CC088E189BD8AE189BD59
:1002100009B400FEFDCF81E08093040189D004C0C1
:1002200019BC1092040184D08091E10080FF18C0B5
:100230008091E20080FF14C08091E2008E7F809365
:10024000E2008091E20080618093E2008091D8001A
:1002500080628093D80019BC85E08093040168D047
:100260008091E10084FF2DC08091E20084FF29C0CD
:1002700088E189BD8AE189BD09B400FEFDCF809186
:10028000D8008F7D8093D8008091E1008F7E80938D
:10029000E1008091E2008F7E8093E2008091E20095
:1002A00081608093E20080910001811106C08091FD
:1002B000E30087FD02C081E001C084E08093040177
:1002C00037D08091E10083FF22C08091E20083FF5C
:1002D0001EC08091E100877F8093E10082E08093DF
:1002E0000401109200018091E1008E7F8093E10073
:1002F0008091E2008E7F8093E2008091E200806135
:100300008093E20042E060E080E019DF11D0FF91CD
:10031000EF91BF91AF919F918F917F916F915F917D
:100320004F913F912F910F900FBE0F901F901895F6
:060330000895F894FFCFD0
:00000001FF
